{
  "_format": "hh-sol-artifact-1",
  "contractName": "NotFairToken",
  "sourceName": "contracts/NotFair.sol",
  "abi": [
    {
      "inputs": [],
      "stateMutability": "nonpayable",
      "type": "constructor"
    },
    {
      "anonymous": false,
      "inputs": [
        {
          "indexed": true,
          "internalType": "address",
          "name": "owner",
          "type": "address"
        },
        {
          "indexed": true,
          "internalType": "address",
          "name": "spender",
          "type": "address"
        },
        {
          "indexed": false,
          "internalType": "uint256",
          "name": "value",
          "type": "uint256"
        }
      ],
      "name": "Approval",
      "type": "event"
    },
    {
      "anonymous": false,
      "inputs": [
        {
          "indexed": true,
          "internalType": "address",
          "name": "previousOwner",
          "type": "address"
        },
        {
          "indexed": true,
          "internalType": "address",
          "name": "newOwner",
          "type": "address"
        }
      ],
      "name": "OwnershipTransferred",
      "type": "event"
    },
    {
      "anonymous": false,
      "inputs": [
        {
          "indexed": true,
          "internalType": "address",
          "name": "from",
          "type": "address"
        },
        {
          "indexed": true,
          "internalType": "address",
          "name": "to",
          "type": "address"
        },
        {
          "indexed": false,
          "internalType": "uint256",
          "name": "value",
          "type": "uint256"
        }
      ],
      "name": "Transfer",
      "type": "event"
    },
    {
      "inputs": [
        {
          "internalType": "address",
          "name": "owner",
          "type": "address"
        },
        {
          "internalType": "address",
          "name": "spender",
          "type": "address"
        }
      ],
      "name": "allowance",
      "outputs": [
        {
          "internalType": "uint256",
          "name": "",
          "type": "uint256"
        }
      ],
      "stateMutability": "view",
      "type": "function"
    },
    {
      "inputs": [
        {
          "internalType": "address",
          "name": "spender",
          "type": "address"
        },
        {
          "internalType": "uint256",
          "name": "amount",
          "type": "uint256"
        }
      ],
      "name": "approve",
      "outputs": [
        {
          "internalType": "bool",
          "name": "",
          "type": "bool"
        }
      ],
      "stateMutability": "nonpayable",
      "type": "function"
    },
    {
      "inputs": [
        {
          "internalType": "address",
          "name": "account",
          "type": "address"
        }
      ],
      "name": "balanceOf",
      "outputs": [
        {
          "internalType": "uint256",
          "name": "",
          "type": "uint256"
        }
      ],
      "stateMutability": "view",
      "type": "function"
    },
    {
      "inputs": [],
      "name": "decimals",
      "outputs": [
        {
          "internalType": "uint8",
          "name": "",
          "type": "uint8"
        }
      ],
      "stateMutability": "view",
      "type": "function"
    },
    {
      "inputs": [
        {
          "internalType": "address",
          "name": "spender",
          "type": "address"
        },
        {
          "internalType": "uint256",
          "name": "subtractedValue",
          "type": "uint256"
        }
      ],
      "name": "decreaseAllowance",
      "outputs": [
        {
          "internalType": "bool",
          "name": "",
          "type": "bool"
        }
      ],
      "stateMutability": "nonpayable",
      "type": "function"
    },
    {
      "inputs": [
        {
          "internalType": "address",
          "name": "spender",
          "type": "address"
        },
        {
          "internalType": "uint256",
          "name": "addedValue",
          "type": "uint256"
        }
      ],
      "name": "increaseAllowance",
      "outputs": [
        {
          "internalType": "bool",
          "name": "",
          "type": "bool"
        }
      ],
      "stateMutability": "nonpayable",
      "type": "function"
    },
    {
      "inputs": [
        {
          "internalType": "address",
          "name": "to",
          "type": "address"
        }
      ],
      "name": "mint",
      "outputs": [],
      "stateMutability": "nonpayable",
      "type": "function"
    },
    {
      "inputs": [],
      "name": "minter",
      "outputs": [
        {
          "internalType": "address",
          "name": "",
          "type": "address"
        }
      ],
      "stateMutability": "view",
      "type": "function"
    },
    {
      "inputs": [],
      "name": "name",
      "outputs": [
        {
          "internalType": "string",
          "name": "",
          "type": "string"
        }
      ],
      "stateMutability": "view",
      "type": "function"
    },
    {
      "inputs": [],
      "name": "owner",
      "outputs": [
        {
          "internalType": "address",
          "name": "",
          "type": "address"
        }
      ],
      "stateMutability": "view",
      "type": "function"
    },
    {
      "inputs": [],
      "name": "renounceOwnership",
      "outputs": [],
      "stateMutability": "nonpayable",
      "type": "function"
    },
    {
      "inputs": [],
      "name": "symbol",
      "outputs": [
        {
          "internalType": "string",
          "name": "",
          "type": "string"
        }
      ],
      "stateMutability": "view",
      "type": "function"
    },
    {
      "inputs": [],
      "name": "totalSupply",
      "outputs": [
        {
          "internalType": "uint256",
          "name": "",
          "type": "uint256"
        }
      ],
      "stateMutability": "view",
      "type": "function"
    },
    {
      "inputs": [
        {
          "internalType": "address",
          "name": "recipient",
          "type": "address"
        },
        {
          "internalType": "uint256",
          "name": "amount",
          "type": "uint256"
        }
      ],
      "name": "transfer",
      "outputs": [
        {
          "internalType": "bool",
          "name": "",
          "type": "bool"
        }
      ],
      "stateMutability": "nonpayable",
      "type": "function"
    },
    {
      "inputs": [
        {
          "internalType": "address",
          "name": "sender",
          "type": "address"
        },
        {
          "internalType": "address",
          "name": "recipient",
          "type": "address"
        },
        {
          "internalType": "uint256",
          "name": "amount",
          "type": "uint256"
        }
      ],
      "name": "transferFrom",
      "outputs": [
        {
          "internalType": "bool",
          "name": "",
          "type": "bool"
        }
      ],
      "stateMutability": "nonpayable",
      "type": "function"
    },
    {
      "inputs": [
        {
          "internalType": "address",
          "name": "newOwner",
          "type": "address"
        }
      ],
      "name": "transferOwnership",
      "outputs": [],
      "stateMutability": "nonpayable",
      "type": "function"
    }
  ],
  "bytecode": "0x60806040523480156200001157600080fd5b50604051806040016040528060078152602001662737ba2330b4b960c91b815250604051806040016040528060038152602001624e464160e81b81525081600390816200005f9190620001fb565b5060046200006e8282620001fb565b5050506200008b620000856200009160201b60201c565b62000095565b620002cb565b3390565b600580546001600160a01b038381166001600160a01b0319831681179093556040519116919082907f8be0079c531659141344cd1fd0a4f28419497f9722a3daafe3b4186f6b6457e090600090a35050565b634e487b7160e01b600052604160045260246000fd5b634e487b7160e01b600052602260045260246000fd5b6002810460018216806200012857607f821691505b6020821081036200013d576200013d620000fd565b50919050565b600062000154620001518381565b90565b92915050565b620001658362000143565b815460001960089490940293841b1916921b91909117905550565b60006200018f8184846200015a565b505050565b81811015620001b357620001aa60008262000180565b60010162000194565b5050565b601f8211156200018f576000818152602090206020601f85010481016020851015620001e05750805b620001f46020601f86010483018262000194565b5050505050565b81516001600160401b03811115620002175762000217620000e7565b62000223825462000113565b62000230828285620001b7565b6020601f8311600181146200026757600084156200024e5750858201515b600019600886021c1981166002860217865550620002c3565b600085815260208120601f198616915b8281101562000299578885015182556020948501946001909201910162000277565b86831015620002b65784890151600019601f89166008021c191682555b6001600288020188555050505b505050505050565b61103d80620002db6000396000f3fe608060405234801561001057600080fd5b50600436106101005760003560e01c806370a0823111610097578063a457c2d711610066578063a457c2d714610208578063a9059cbb1461021b578063dd62ed3e1461022e578063f2fde38b1461024157600080fd5b806370a08231146101be578063715018a6146101e75780638da5cb5b146101ef57806395d89b411461020057600080fd5b806323b872dd116100d357806323b872dd14610174578063313ce5671461018757806339509351146101965780636a627842146101a957600080fd5b806306fdde03146101055780630754617214610123578063095ea7b31461014357806318160ddd14610163575b600080fd5b61010d610254565b60405161011a91906109fc565b60405180910390f35b600654610136906001600160a01b031681565b60405161011a9190610a2d565b610156610151366004610a6b565b6102e6565b60405161011a9190610ab0565b6002545b60405161011a9190610ac4565b610156610182366004610ad2565b610300565b601260405161011a9190610b2b565b6101566101a4366004610a6b565b6103f3565b6101bc6101b7366004610b39565b610415565b005b6101676101cc366004610b39565b6001600160a01b031660009081526020819052604090205490565b6101bc6104c3565b6005546001600160a01b0316610136565b61010d6104d7565b610156610216366004610a6b565b6104e6565b610156610229366004610a6b565b61052e565b61016761023c366004610b5a565b610611565b6101bc61024f366004610b39565b61063c565b60606003805461026390610ba3565b80601f016020809104026020016040519081016040528092919081815260200182805461028f90610ba3565b80156102dc5780601f106102b1576101008083540402835291602001916102dc565b820191906000526020600020905b8154815290600101906020018083116102bf57829003601f168201915b5050505050905090565b6000336102f4818585610673565b60019150505b92915050565b60006103166005546001600160a01b0316331490565b15801561033457506103326006546001600160a01b0316331490565b155b801561034e57506005546001600160a01b03848116911614155b801561036857506006546001600160a01b03848116911614155b156103e057606461038760016c064f964e68233a76f520000000610be5565b6103919190610c1a565b6103b9836103b4866001600160a01b031660009081526020819052604090205490565b610727565b11156103e05760405162461bcd60e51b81526004016103d790610c65565b60405180910390fd5b6103eb848484610733565b949350505050565b6000336102f48185856104068383610611565b6104109190610c75565b610673565b61041d61074c565b6001600160a01b0381166104435760405162461bcd60e51b81526004016103d790610cb3565b6c064f964e68233a76f52000000061047061045d60025490565b6c064f964e68233a76f520000000610727565b111561048e5760405162461bcd60e51b81526004016103d790610cf0565b600680546001600160a01b0319166001600160a01b0383161790556104c0816c064f964e68233a76f520000000610776565b50565b6104cb61074c565b6104d5600061080c565b565b60606004805461026390610ba3565b600033816104f48286610611565b9050838110156105165760405162461bcd60e51b81526004016103d790610d45565b6105238286868403610673565b506001949350505050565b60006105446005546001600160a01b0316331490565b15801561056257506105606006546001600160a01b0316331490565b155b801561057c57506005546001600160a01b03848116911614155b801561059657506006546001600160a01b03848116911614155b156106005760646105b560016c064f964e68233a76f520000000610be5565b6105bf9190610c1a565b6105e2836103b4866001600160a01b031660009081526020819052604090205490565b11156106005760405162461bcd60e51b81526004016103d790610c65565b61060a838361085e565b9392505050565b6001600160a01b03918216600090815260016020908152604080832093909416825291909152205490565b61064461074c565b6001600160a01b03811661066a5760405162461bcd60e51b81526004016103d790610d98565b6104c08161080c565b6001600160a01b0383166106995760405162461bcd60e51b81526004016103d790610de9565b6001600160a01b0382166106bf5760405162461bcd60e51b81526004016103d790610e38565b6001600160a01b0380841660008181526001602090815260408083209487168084529490915290819020849055517f8c5be1e5ebec7d5bd14f71427d1e84f3dd0314c0f7b2291e5b200ac8c7c3b9259061071a908590610ac4565b60405180910390a3505050565b600061060a8284610c75565b60003361074185828561086c565b6105238585856108b6565b6005546001600160a01b031633146104d55760405162461bcd60e51b81526004016103d790610e7a565b6001600160a01b03821661079c5760405162461bcd60e51b81526004016103d790610ebe565b80600260008282546107ae9190610c75565b90915550506001600160a01b038216600081815260208190526040808220805485019055517fddf252ad1be2c89b69c2b068fc378daa952ba7f163c4a11628f55a4df523b3ef90610800908590610ac4565b60405180910390a35050565b600580546001600160a01b038381166001600160a01b0319831681179093556040519116919082907f8be0079c531659141344cd1fd0a4f28419497f9722a3daafe3b4186f6b6457e090600090a35050565b6000336102f48185856108b6565b60006108788484610611565b905060001981146108b057818110156108a35760405162461bcd60e51b81526004016103d790610f02565b6108b08484848403610673565b50505050565b6001600160a01b0383166108dc5760405162461bcd60e51b81526004016103d790610f54565b6001600160a01b0382166109025760405162461bcd60e51b81526004016103d790610fa4565b6001600160a01b0383166000908152602081905260409020548181101561093b5760405162461bcd60e51b81526004016103d790610ff7565b6001600160a01b0380851660008181526020819052604080822086860390559286168082529083902080548601905591517fddf252ad1be2c89b69c2b068fc378daa952ba7f163c4a11628f55a4df523b3ef90610999908690610ac4565b60405180910390a36108b0565b60005b838110156109c15781810151838201526020016109a9565b50506000910152565b60006109d4825190565b8084526020840193506109eb8185602086016109a6565b601f01601f19169290920192915050565b6020808252810161060a81846109ca565b60006001600160a01b0382166102fa565b610a2781610a0d565b82525050565b602081016102fa8284610a1e565b610a4481610a0d565b81146104c057600080fd5b80356102fa81610a3b565b80610a44565b80356102fa81610a5a565b60008060408385031215610a8157610a81600080fd5b6000610a8d8585610a4f565b9250506020610a9e85828601610a60565b9150509250929050565b801515610a27565b602081016102fa8284610aa8565b80610a27565b602081016102fa8284610abe565b600080600060608486031215610aea57610aea600080fd5b6000610af68686610a4f565b9350506020610b0786828701610a4f565b9250506040610b1886828701610a60565b9150509250925092565b60ff8116610a27565b602081016102fa8284610b22565b600060208284031215610b4e57610b4e600080fd5b60006103eb8484610a4f565b60008060408385031215610b7057610b70600080fd5b6000610b7c8585610a4f565b9250506020610a9e85828601610a4f565b634e487b7160e01b600052602260045260246000fd5b600281046001821680610bb757607f821691505b602082108103610bc957610bc9610b8d565b50919050565b634e487b7160e01b600052601160045260246000fd5b818102808215838204851417610bfd57610bfd610bcf565b5092915050565b634e487b7160e01b600052601260045260246000fd5b600082610c2957610c29610c04565b500490565b601e81526000602082017f45786365656473206d6178696d756d206275792070657263656e746167650000815291505b5060200190565b602080825281016102fa81610c2e565b808201808211156102fa576102fa610bcf565b6014815260006020820173496e76616c6964206d696e74206164647265737360601b81529150610c5e565b602080825281016102fa81610c88565b601681526000602082017545786365656473206d6178696d756d20737570706c7960501b81529150610c5e565b602080825281016102fa81610cc3565b602581526000602082017f45524332303a2064656372656173656420616c6c6f77616e63652062656c6f77815264207a65726f60d81b602082015291505b5060400190565b602080825281016102fa81610d00565b602681526000602082017f4f776e61626c653a206e6577206f776e657220697320746865207a65726f206181526564647265737360d01b60208201529150610d3e565b602080825281016102fa81610d55565b602481526000602082017f45524332303a20617070726f76652066726f6d20746865207a65726f206164648152637265737360e01b60208201529150610d3e565b602080825281016102fa81610da8565b602281526000602082017f45524332303a20617070726f766520746f20746865207a65726f206164647265815261737360f01b60208201529150610d3e565b602080825281016102fa81610df9565b60208082527f4f776e61626c653a2063616c6c6572206973206e6f7420746865206f776e657291019081526000610c5e565b602080825281016102fa81610e48565b601f81526000602082017f45524332303a206d696e7420746f20746865207a65726f20616464726573730081529150610c5e565b602080825281016102fa81610e8a565b601d81526000602082017f45524332303a20696e73756666696369656e7420616c6c6f77616e636500000081529150610c5e565b602080825281016102fa81610ece565b602581526000602082017f45524332303a207472616e736665722066726f6d20746865207a65726f206164815264647265737360d81b60208201529150610d3e565b602080825281016102fa81610f12565b602381526000602082017f45524332303a207472616e7366657220746f20746865207a65726f206164647281526265737360e81b60208201529150610d3e565b602080825281016102fa81610f64565b602681526000602082017f45524332303a207472616e7366657220616d6f756e7420657863656564732062815265616c616e636560d01b60208201529150610d3e565b602080825281016102fa81610fb456fea26469706673582212204beba4c69e3e1e77623aa465f471e44a832c2eef991d474a4ca501b4483888bf64736f6c63430008170033",
  "linkReferences": {},
  "deployedLinkReferences": {}
}