{
  "_format": "hh-sol-artifact-1",
  "contractName": "NotFairToken",
  "sourceName": "contracts/NotFair.sol",
  "abi": [
    {
      "inputs": [],
      "stateMutability": "nonpayable",
      "type": "constructor"
    },
    {
      "anonymous": false,
      "inputs": [
        {
          "indexed": true,
          "internalType": "address",
          "name": "owner",
          "type": "address"
        },
        {
          "indexed": true,
          "internalType": "address",
          "name": "spender",
          "type": "address"
        },
        {
          "indexed": false,
          "internalType": "uint256",
          "name": "value",
          "type": "uint256"
        }
      ],
      "name": "Approval",
      "type": "event"
    },
    {
      "anonymous": false,
      "inputs": [
        {
          "indexed": true,
          "internalType": "address",
          "name": "previousOwner",
          "type": "address"
        },
        {
          "indexed": true,
          "internalType": "address",
          "name": "newOwner",
          "type": "address"
        }
      ],
      "name": "OwnershipTransferred",
      "type": "event"
    },
    {
      "anonymous": false,
      "inputs": [
        {
          "indexed": true,
          "internalType": "address",
          "name": "from",
          "type": "address"
        },
        {
          "indexed": true,
          "internalType": "address",
          "name": "to",
          "type": "address"
        },
        {
          "indexed": false,
          "internalType": "uint256",
          "name": "value",
          "type": "uint256"
        }
      ],
      "name": "Transfer",
      "type": "event"
    },
    {
      "inputs": [
        {
          "internalType": "address",
          "name": "owner",
          "type": "address"
        },
        {
          "internalType": "address",
          "name": "spender",
          "type": "address"
        }
      ],
      "name": "allowance",
      "outputs": [
        {
          "internalType": "uint256",
          "name": "",
          "type": "uint256"
        }
      ],
      "stateMutability": "view",
      "type": "function"
    },
    {
      "inputs": [
        {
          "internalType": "address",
          "name": "spender",
          "type": "address"
        },
        {
          "internalType": "uint256",
          "name": "amount",
          "type": "uint256"
        }
      ],
      "name": "approve",
      "outputs": [
        {
          "internalType": "bool",
          "name": "",
          "type": "bool"
        }
      ],
      "stateMutability": "nonpayable",
      "type": "function"
    },
    {
      "inputs": [
        {
          "internalType": "address",
          "name": "account",
          "type": "address"
        }
      ],
      "name": "balanceOf",
      "outputs": [
        {
          "internalType": "uint256",
          "name": "",
          "type": "uint256"
        }
      ],
      "stateMutability": "view",
      "type": "function"
    },
    {
      "inputs": [],
      "name": "decimals",
      "outputs": [
        {
          "internalType": "uint8",
          "name": "",
          "type": "uint8"
        }
      ],
      "stateMutability": "view",
      "type": "function"
    },
    {
      "inputs": [
        {
          "internalType": "address",
          "name": "spender",
          "type": "address"
        },
        {
          "internalType": "uint256",
          "name": "subtractedValue",
          "type": "uint256"
        }
      ],
      "name": "decreaseAllowance",
      "outputs": [
        {
          "internalType": "bool",
          "name": "",
          "type": "bool"
        }
      ],
      "stateMutability": "nonpayable",
      "type": "function"
    },
    {
      "inputs": [
        {
          "internalType": "address",
          "name": "spender",
          "type": "address"
        },
        {
          "internalType": "uint256",
          "name": "addedValue",
          "type": "uint256"
        }
      ],
      "name": "increaseAllowance",
      "outputs": [
        {
          "internalType": "bool",
          "name": "",
          "type": "bool"
        }
      ],
      "stateMutability": "nonpayable",
      "type": "function"
    },
    {
      "inputs": [
        {
          "internalType": "address",
          "name": "to",
          "type": "address"
        }
      ],
      "name": "mint",
      "outputs": [],
      "stateMutability": "nonpayable",
      "type": "function"
    },
    {
      "inputs": [],
      "name": "minter",
      "outputs": [
        {
          "internalType": "address",
          "name": "",
          "type": "address"
        }
      ],
      "stateMutability": "view",
      "type": "function"
    },
    {
      "inputs": [],
      "name": "name",
      "outputs": [
        {
          "internalType": "string",
          "name": "",
          "type": "string"
        }
      ],
      "stateMutability": "view",
      "type": "function"
    },
    {
      "inputs": [],
      "name": "owner",
      "outputs": [
        {
          "internalType": "address",
          "name": "",
          "type": "address"
        }
      ],
      "stateMutability": "view",
      "type": "function"
    },
    {
      "inputs": [],
      "name": "renounceOwnership",
      "outputs": [],
      "stateMutability": "nonpayable",
      "type": "function"
    },
    {
      "inputs": [],
      "name": "symbol",
      "outputs": [
        {
          "internalType": "string",
          "name": "",
          "type": "string"
        }
      ],
      "stateMutability": "view",
      "type": "function"
    },
    {
      "inputs": [],
      "name": "totalSupply",
      "outputs": [
        {
          "internalType": "uint256",
          "name": "",
          "type": "uint256"
        }
      ],
      "stateMutability": "view",
      "type": "function"
    },
    {
      "inputs": [
        {
          "internalType": "address",
          "name": "recipient",
          "type": "address"
        },
        {
          "internalType": "uint256",
          "name": "amount",
          "type": "uint256"
        }
      ],
      "name": "transfer",
      "outputs": [
        {
          "internalType": "bool",
          "name": "",
          "type": "bool"
        }
      ],
      "stateMutability": "nonpayable",
      "type": "function"
    },
    {
      "inputs": [
        {
          "internalType": "address",
          "name": "sender",
          "type": "address"
        },
        {
          "internalType": "address",
          "name": "recipient",
          "type": "address"
        },
        {
          "internalType": "uint256",
          "name": "amount",
          "type": "uint256"
        }
      ],
      "name": "transferFrom",
      "outputs": [
        {
          "internalType": "bool",
          "name": "",
          "type": "bool"
        }
      ],
      "stateMutability": "nonpayable",
      "type": "function"
    },
    {
      "inputs": [
        {
          "internalType": "address",
          "name": "newOwner",
          "type": "address"
        }
      ],
      "name": "transferOwnership",
      "outputs": [],
      "stateMutability": "nonpayable",
      "type": "function"
    }
  ],
  "bytecode": "0x60806040523480156200001157600080fd5b50604051806040016040528060078152602001662737ba2330b4b960c91b815250604051806040016040528060038152602001624e464160e81b81525081600390816200005f919062000200565b5060046200006e828262000200565b5050506200008b620000856200009160201b60201c565b62000095565b620002d0565b3390565b600580546001600160a01b038381166001600160a01b0319831681179093556040519116919082907f8be0079c531659141344cd1fd0a4f28419497f9722a3daafe3b4186f6b6457e090600090a35050565b634e487b7160e01b600052604160045260246000fd5b634e487b7160e01b600052602260045260246000fd5b6002810460018216806200012857607f821691505b6020821081036200013d576200013d620000fd565b50919050565b600062000154620001518381565b90565b92915050565b620001658362000143565b81546008840282811b60001990911b908116901990911617825550505050565b6000620001948184846200015a565b505050565b81811015620001b857620001af60008262000185565b60010162000199565b5050565b601f82111562000194576000818152602090206020601f85010481016020851015620001e55750805b620001f96020601f86010483018262000199565b5050505050565b81516001600160401b038111156200021c576200021c620000e7565b62000228825462000113565b62000235828285620001bc565b6020601f8311600181146200026c5760008415620002535750858201515b600019600886021c1981166002860217865550620002c8565b600085815260208120601f198616915b828110156200029e57888501518255602094850194600190920191016200027c565b86831015620002bb5784890151600019601f89166008021c191682555b6001600288020188555050505b505050505050565b610fb980620002e06000396000f3fe608060405234801561001057600080fd5b50600436106101005760003560e01c806370a0823111610097578063a457c2d711610066578063a457c2d714610208578063a9059cbb1461021b578063dd62ed3e1461022e578063f2fde38b1461024157600080fd5b806370a08231146101be578063715018a6146101e75780638da5cb5b146101ef57806395d89b411461020057600080fd5b806323b872dd116100d357806323b872dd14610174578063313ce5671461018757806339509351146101965780636a627842146101a957600080fd5b806306fdde03146101055780630754617214610123578063095ea7b31461014357806318160ddd14610163575b600080fd5b61010d610254565b60405161011a9190610978565b60405180910390f35b600654610136906001600160a01b031681565b60405161011a91906109a9565b6101566101513660046109e7565b6102e6565b60405161011a9190610a2c565b6002545b60405161011a9190610a40565b610156610182366004610a4e565b610300565b601260405161011a9190610aa7565b6101566101a43660046109e7565b6103ba565b6101bc6101b7366004610ab5565b6103dc565b005b6101676101cc366004610ab5565b6001600160a01b031660009081526020819052604090205490565b6101bc61047f565b6005546001600160a01b0316610136565b61010d610493565b6101566102163660046109e7565b6104a2565b6101566102293660046109e7565b6104ea565b61016761023c366004610ad6565b610599565b6101bc61024f366004610ab5565b6105c4565b60606003805461026390610b1f565b80601f016020809104026020016040519081016040528092919081815260200182805461028f90610b1f565b80156102dc5780601f106102b1576101008083540402835291602001916102dc565b820191906000526020600020905b8154815290600101906020018083116102bf57829003601f168201915b5050505050905090565b6000336102f48185856105fb565b60019150505b92915050565b60006103166005546001600160a01b0316331490565b15801561033457506103326006546001600160a01b0316331490565b155b156103a757606461035360016c064f964e68233a76f520000000610b61565b61035d9190610b96565b6001600160a01b0384166000908152602081905260409020546103809084610baa565b11156103a75760405162461bcd60e51b815260040161039e90610bf4565b60405180910390fd5b6103b28484846106af565b949350505050565b6000336102f48185856103cd8383610599565b6103d79190610baa565b6105fb565b6103e46106c8565b6001600160a01b03811661040a5760405162461bcd60e51b815260040161039e90610c2f565b6c064f964e68233a76f5200000008061042260025490565b61042c9190610baa565b111561044a5760405162461bcd60e51b815260040161039e90610c6c565b600680546001600160a01b0319166001600160a01b03831617905561047c816c064f964e68233a76f5200000006106f2565b50565b6104876106c8565b6104916000610788565b565b60606004805461026390610b1f565b600033816104b08286610599565b9050838110156104d25760405162461bcd60e51b815260040161039e90610cc1565b6104df82868684036105fb565b506001949350505050565b60006105006005546001600160a01b0316331490565b15801561051e575061051c6006546001600160a01b0316331490565b155b1561058857606461053d60016c064f964e68233a76f520000000610b61565b6105479190610b96565b6001600160a01b03841660009081526020819052604090205461056a9084610baa565b11156105885760405162461bcd60e51b815260040161039e90610bf4565b61059283836107da565b9392505050565b6001600160a01b03918216600090815260016020908152604080832093909416825291909152205490565b6105cc6106c8565b6001600160a01b0381166105f25760405162461bcd60e51b815260040161039e90610d14565b61047c81610788565b6001600160a01b0383166106215760405162461bcd60e51b815260040161039e90610d65565b6001600160a01b0382166106475760405162461bcd60e51b815260040161039e90610db4565b6001600160a01b0380841660008181526001602090815260408083209487168084529490915290819020849055517f8c5be1e5ebec7d5bd14f71427d1e84f3dd0314c0f7b2291e5b200ac8c7c3b925906106a2908590610a40565b60405180910390a3505050565b6000336106bd8582856107e8565b6104df858585610832565b6005546001600160a01b031633146104915760405162461bcd60e51b815260040161039e90610df6565b6001600160a01b0382166107185760405162461bcd60e51b815260040161039e90610e3a565b806002600082825461072a9190610baa565b90915550506001600160a01b038216600081815260208190526040808220805485019055517fddf252ad1be2c89b69c2b068fc378daa952ba7f163c4a11628f55a4df523b3ef9061077c908590610a40565b60405180910390a35050565b600580546001600160a01b038381166001600160a01b0319831681179093556040519116919082907f8be0079c531659141344cd1fd0a4f28419497f9722a3daafe3b4186f6b6457e090600090a35050565b6000336102f4818585610832565b60006107f48484610599565b9050600019811461082c578181101561081f5760405162461bcd60e51b815260040161039e90610e7e565b61082c84848484036105fb565b50505050565b6001600160a01b0383166108585760405162461bcd60e51b815260040161039e90610ed0565b6001600160a01b03821661087e5760405162461bcd60e51b815260040161039e90610f20565b6001600160a01b038316600090815260208190526040902054818110156108b75760405162461bcd60e51b815260040161039e90610f73565b6001600160a01b0380851660008181526020819052604080822086860390559286168082529083902080548601905591517fddf252ad1be2c89b69c2b068fc378daa952ba7f163c4a11628f55a4df523b3ef90610915908690610a40565b60405180910390a361082c565b60005b8381101561093d578181015183820152602001610925565b50506000910152565b6000610950825190565b808452602084019350610967818560208601610922565b601f01601f19169290920192915050565b602080825281016105928184610946565b60006001600160a01b0382166102fa565b6109a381610989565b82525050565b602081016102fa828461099a565b6109c081610989565b811461047c57600080fd5b80356102fa816109b7565b806109c0565b80356102fa816109d6565b600080604083850312156109fd576109fd600080fd5b6000610a0985856109cb565b9250506020610a1a858286016109dc565b9150509250929050565b8015156109a3565b602081016102fa8284610a24565b806109a3565b602081016102fa8284610a3a565b600080600060608486031215610a6657610a66600080fd5b6000610a7286866109cb565b9350506020610a83868287016109cb565b9250506040610a94868287016109dc565b9150509250925092565b60ff81166109a3565b602081016102fa8284610a9e565b600060208284031215610aca57610aca600080fd5b60006103b284846109cb565b60008060408385031215610aec57610aec600080fd5b6000610af885856109cb565b9250506020610a1a858286016109cb565b634e487b7160e01b600052602260045260246000fd5b600281046001821680610b3357607f821691505b602082108103610b4557610b45610b09565b50919050565b634e487b7160e01b600052601160045260246000fd5b818102808215838204851417610b7957610b79610b4b565b5092915050565b634e487b7160e01b600052601260045260246000fd5b600082610ba557610ba5610b80565b500490565b808201808211156102fa576102fa610b4b565b601e81526000602082017f45786365656473206d6178696d756d206275792070657263656e746167650000815291505b5060200190565b602080825281016102fa81610bbd565b6014815260006020820173496e76616c6964206d696e74206164647265737360601b81529150610bed565b602080825281016102fa81610c04565b601681526000602082017545786365656473206d6178696d756d20737570706c7960501b81529150610bed565b602080825281016102fa81610c3f565b602581526000602082017f45524332303a2064656372656173656420616c6c6f77616e63652062656c6f77815264207a65726f60d81b602082015291505b5060400190565b602080825281016102fa81610c7c565b602681526000602082017f4f776e61626c653a206e6577206f776e657220697320746865207a65726f206181526564647265737360d01b60208201529150610cba565b602080825281016102fa81610cd1565b602481526000602082017f45524332303a20617070726f76652066726f6d20746865207a65726f206164648152637265737360e01b60208201529150610cba565b602080825281016102fa81610d24565b602281526000602082017f45524332303a20617070726f766520746f20746865207a65726f206164647265815261737360f01b60208201529150610cba565b602080825281016102fa81610d75565b60208082527f4f776e61626c653a2063616c6c6572206973206e6f7420746865206f776e657291019081526000610bed565b602080825281016102fa81610dc4565b601f81526000602082017f45524332303a206d696e7420746f20746865207a65726f20616464726573730081529150610bed565b602080825281016102fa81610e06565b601d81526000602082017f45524332303a20696e73756666696369656e7420616c6c6f77616e636500000081529150610bed565b602080825281016102fa81610e4a565b602581526000602082017f45524332303a207472616e736665722066726f6d20746865207a65726f206164815264647265737360d81b60208201529150610cba565b602080825281016102fa81610e8e565b602381526000602082017f45524332303a207472616e7366657220746f20746865207a65726f206164647281526265737360e81b60208201529150610cba565b602080825281016102fa81610ee0565b602681526000602082017f45524332303a207472616e7366657220616d6f756e7420657863656564732062815265616c616e636560d01b60208201529150610cba565b602080825281016102fa81610f3056fea264697066735822122075ab460b74a42bd9582e723475af71f7e315d2b5ab73c166cc14272bb2d1117a64736f6c63430008110033",
  "linkReferences": {},
  "deployedLinkReferences": {}
}