{"contracts/NotFair.sol":{"NotFairToken":{"abi":[{"inputs":[],"stateMutability":"nonpayable","type":"constructor"},{"anonymous":false,"inputs":[{"indexed":true,"internalType":"address","name":"owner","type":"address"},{"indexed":true,"internalType":"address","name":"spender","type":"address"},{"indexed":false,"internalType":"uint256","name":"value","type":"uint256"}],"name":"Approval","type":"event"},{"anonymous":false,"inputs":[{"indexed":true,"internalType":"address","name":"previousOwner","type":"address"},{"indexed":true,"internalType":"address","name":"newOwner","type":"address"}],"name":"OwnershipTransferred","type":"event"},{"anonymous":false,"inputs":[{"indexed":true,"internalType":"address","name":"from","type":"address"},{"indexed":true,"internalType":"address","name":"to","type":"address"},{"indexed":false,"internalType":"uint256","name":"value","type":"uint256"}],"name":"Transfer","type":"event"},{"inputs":[{"internalType":"address","name":"owner","type":"address"},{"internalType":"address","name":"spender","type":"address"}],"name":"allowance","outputs":[{"internalType":"uint256","name":"","type":"uint256"}],"stateMutability":"view","type":"function"},{"inputs":[{"internalType":"address","name":"spender","type":"address"},{"internalType":"uint256","name":"amount","type":"uint256"}],"name":"approve","outputs":[{"internalType":"bool","name":"","type":"bool"}],"stateMutability":"nonpayable","type":"function"},{"inputs":[{"internalType":"address","name":"account","type":"address"}],"name":"balanceOf","outputs":[{"internalType":"uint256","name":"","type":"uint256"}],"stateMutability":"view","type":"function"},{"inputs":[],"name":"decimals","outputs":[{"internalType":"uint8","name":"","type":"uint8"}],"stateMutability":"view","type":"function"},{"inputs":[{"internalType":"address","name":"spender","type":"address"},{"internalType":"uint256","name":"subtractedValue","type":"uint256"}],"name":"decreaseAllowance","outputs":[{"internalType":"bool","name":"","type":"bool"}],"stateMutability":"nonpayable","type":"function"},{"inputs":[{"internalType":"address","name":"spender","type":"address"},{"internalType":"uint256","name":"addedValue","type":"uint256"}],"name":"increaseAllowance","outputs":[{"internalType":"bool","name":"","type":"bool"}],"stateMutability":"nonpayable","type":"function"},{"inputs":[{"internalType":"address","name":"to","type":"address"}],"name":"mint","outputs":[],"stateMutability":"nonpayable","type":"function"},{"inputs":[],"name":"minter","outputs":[{"internalType":"address","name":"","type":"address"}],"stateMutability":"view","type":"function"},{"inputs":[],"name":"name","outputs":[{"internalType":"string","name":"","type":"string"}],"stateMutability":"view","type":"function"},{"inputs":[],"name":"owner","outputs":[{"internalType":"address","name":"","type":"address"}],"stateMutability":"view","type":"function"},{"inputs":[],"name":"renounceOwnership","outputs":[],"stateMutability":"nonpayable","type":"function"},{"inputs":[],"name":"symbol","outputs":[{"internalType":"string","name":"","type":"string"}],"stateMutability":"view","type":"function"},{"inputs":[],"name":"totalSupply","outputs":[{"internalType":"uint256","name":"","type":"uint256"}],"stateMutability":"view","type":"function"},{"inputs":[{"internalType":"address","name":"recipient","type":"address"},{"internalType":"uint256","name":"amount","type":"uint256"}],"name":"transfer","outputs":[{"internalType":"bool","name":"","type":"bool"}],"stateMutability":"nonpayable","type":"function"},{"inputs":[{"internalType":"address","name":"sender","type":"address"},{"internalType":"address","name":"recipient","type":"address"},{"internalType":"uint256","name":"amount","type":"uint256"}],"name":"transferFrom","outputs":[{"internalType":"bool","name":"","type":"bool"}],"stateMutability":"nonpayable","type":"function"},{"inputs":[{"internalType":"address","name":"newOwner","type":"address"}],"name":"transferOwnership","outputs":[],"stateMutability":"nonpayable","type":"function"}],"evm":{"bytecode":{"linkReferences":{},"object":"60806040523480156200001157600080fd5b50604051806040016040528060078152602001662737ba2330b4b960c91b815250604051806040016040528060038152602001624e464160e81b81525081600390816200005f9190620001fb565b5060046200006e8282620001fb565b5050506200008b620000856200009160201b60201c565b62000095565b620002cb565b3390565b600580546001600160a01b038381166001600160a01b0319831681179093556040519116919082907f8be0079c531659141344cd1fd0a4f28419497f9722a3daafe3b4186f6b6457e090600090a35050565b634e487b7160e01b600052604160045260246000fd5b634e487b7160e01b600052602260045260246000fd5b6002810460018216806200012857607f821691505b6020821081036200013d576200013d620000fd565b50919050565b600062000154620001518381565b90565b92915050565b620001658362000143565b815460001960089490940293841b1916921b91909117905550565b60006200018f8184846200015a565b505050565b81811015620001b357620001aa60008262000180565b60010162000194565b5050565b601f8211156200018f576000818152602090206020601f85010481016020851015620001e05750805b620001f46020601f86010483018262000194565b5050505050565b81516001600160401b03811115620002175762000217620000e7565b62000223825462000113565b62000230828285620001b7565b6020601f8311600181146200026757600084156200024e5750858201515b600019600886021c1981166002860217865550620002c3565b600085815260208120601f198616915b8281101562000299578885015182556020948501946001909201910162000277565b86831015620002b65784890151600019601f89166008021c191682555b6001600288020188555050505b505050505050565b61103d80620002db6000396000f3fe608060405234801561001057600080fd5b50600436106101005760003560e01c806370a0823111610097578063a457c2d711610066578063a457c2d714610208578063a9059cbb1461021b578063dd62ed3e1461022e578063f2fde38b1461024157600080fd5b806370a08231146101be578063715018a6146101e75780638da5cb5b146101ef57806395d89b411461020057600080fd5b806323b872dd116100d357806323b872dd14610174578063313ce5671461018757806339509351146101965780636a627842146101a957600080fd5b806306fdde03146101055780630754617214610123578063095ea7b31461014357806318160ddd14610163575b600080fd5b61010d610254565b60405161011a91906109fc565b60405180910390f35b600654610136906001600160a01b031681565b60405161011a9190610a2d565b610156610151366004610a6b565b6102e6565b60405161011a9190610ab0565b6002545b60405161011a9190610ac4565b610156610182366004610ad2565b610300565b601260405161011a9190610b2b565b6101566101a4366004610a6b565b6103f3565b6101bc6101b7366004610b39565b610415565b005b6101676101cc366004610b39565b6001600160a01b031660009081526020819052604090205490565b6101bc6104c3565b6005546001600160a01b0316610136565b61010d6104d7565b610156610216366004610a6b565b6104e6565b610156610229366004610a6b565b61052e565b61016761023c366004610b5a565b610611565b6101bc61024f366004610b39565b61063c565b60606003805461026390610ba3565b80601f016020809104026020016040519081016040528092919081815260200182805461028f90610ba3565b80156102dc5780601f106102b1576101008083540402835291602001916102dc565b820191906000526020600020905b8154815290600101906020018083116102bf57829003601f168201915b5050505050905090565b6000336102f4818585610673565b60019150505b92915050565b60006103166005546001600160a01b0316331490565b15801561033457506103326006546001600160a01b0316331490565b155b801561034e57506005546001600160a01b03848116911614155b801561036857506006546001600160a01b03848116911614155b156103e057606461038760016c064f964e68233a76f520000000610be5565b6103919190610c1a565b6103b9836103b4866001600160a01b031660009081526020819052604090205490565b610727565b11156103e05760405162461bcd60e51b81526004016103d790610c65565b60405180910390fd5b6103eb848484610733565b949350505050565b6000336102f48185856104068383610611565b6104109190610c75565b610673565b61041d61074c565b6001600160a01b0381166104435760405162461bcd60e51b81526004016103d790610cb3565b6c064f964e68233a76f52000000061047061045d60025490565b6c064f964e68233a76f520000000610727565b111561048e5760405162461bcd60e51b81526004016103d790610cf0565b600680546001600160a01b0319166001600160a01b0383161790556104c0816c064f964e68233a76f520000000610776565b50565b6104cb61074c565b6104d5600061080c565b565b60606004805461026390610ba3565b600033816104f48286610611565b9050838110156105165760405162461bcd60e51b81526004016103d790610d45565b6105238286868403610673565b506001949350505050565b60006105446005546001600160a01b0316331490565b15801561056257506105606006546001600160a01b0316331490565b155b801561057c57506005546001600160a01b03848116911614155b801561059657506006546001600160a01b03848116911614155b156106005760646105b560016c064f964e68233a76f520000000610be5565b6105bf9190610c1a565b6105e2836103b4866001600160a01b031660009081526020819052604090205490565b11156106005760405162461bcd60e51b81526004016103d790610c65565b61060a838361085e565b9392505050565b6001600160a01b03918216600090815260016020908152604080832093909416825291909152205490565b61064461074c565b6001600160a01b03811661066a5760405162461bcd60e51b81526004016103d790610d98565b6104c08161080c565b6001600160a01b0383166106995760405162461bcd60e51b81526004016103d790610de9565b6001600160a01b0382166106bf5760405162461bcd60e51b81526004016103d790610e38565b6001600160a01b0380841660008181526001602090815260408083209487168084529490915290819020849055517f8c5be1e5ebec7d5bd14f71427d1e84f3dd0314c0f7b2291e5b200ac8c7c3b9259061071a908590610ac4565b60405180910390a3505050565b600061060a8284610c75565b60003361074185828561086c565b6105238585856108b6565b6005546001600160a01b031633146104d55760405162461bcd60e51b81526004016103d790610e7a565b6001600160a01b03821661079c5760405162461bcd60e51b81526004016103d790610ebe565b80600260008282546107ae9190610c75565b90915550506001600160a01b038216600081815260208190526040808220805485019055517fddf252ad1be2c89b69c2b068fc378daa952ba7f163c4a11628f55a4df523b3ef90610800908590610ac4565b60405180910390a35050565b600580546001600160a01b038381166001600160a01b0319831681179093556040519116919082907f8be0079c531659141344cd1fd0a4f28419497f9722a3daafe3b4186f6b6457e090600090a35050565b6000336102f48185856108b6565b60006108788484610611565b905060001981146108b057818110156108a35760405162461bcd60e51b81526004016103d790610f02565b6108b08484848403610673565b50505050565b6001600160a01b0383166108dc5760405162461bcd60e51b81526004016103d790610f54565b6001600160a01b0382166109025760405162461bcd60e51b81526004016103d790610fa4565b6001600160a01b0383166000908152602081905260409020548181101561093b5760405162461bcd60e51b81526004016103d790610ff7565b6001600160a01b0380851660008181526020819052604080822086860390559286168082529083902080548601905591517fddf252ad1be2c89b69c2b068fc378daa952ba7f163c4a11628f55a4df523b3ef90610999908690610ac4565b60405180910390a36108b0565b60005b838110156109c15781810151838201526020016109a9565b50506000910152565b60006109d4825190565b8084526020840193506109eb8185602086016109a6565b601f01601f19169290920192915050565b6020808252810161060a81846109ca565b60006001600160a01b0382166102fa565b610a2781610a0d565b82525050565b602081016102fa8284610a1e565b610a4481610a0d565b81146104c057600080fd5b80356102fa81610a3b565b80610a44565b80356102fa81610a5a565b60008060408385031215610a8157610a81600080fd5b6000610a8d8585610a4f565b9250506020610a9e85828601610a60565b9150509250929050565b801515610a27565b602081016102fa8284610aa8565b80610a27565b602081016102fa8284610abe565b600080600060608486031215610aea57610aea600080fd5b6000610af68686610a4f565b9350506020610b0786828701610a4f565b9250506040610b1886828701610a60565b9150509250925092565b60ff8116610a27565b602081016102fa8284610b22565b600060208284031215610b4e57610b4e600080fd5b60006103eb8484610a4f565b60008060408385031215610b7057610b70600080fd5b6000610b7c8585610a4f565b9250506020610a9e85828601610a4f565b634e487b7160e01b600052602260045260246000fd5b600281046001821680610bb757607f821691505b602082108103610bc957610bc9610b8d565b50919050565b634e487b7160e01b600052601160045260246000fd5b818102808215838204851417610bfd57610bfd610bcf565b5092915050565b634e487b7160e01b600052601260045260246000fd5b600082610c2957610c29610c04565b500490565b601e81526000602082017f45786365656473206d6178696d756d206275792070657263656e746167650000815291505b5060200190565b602080825281016102fa81610c2e565b808201808211156102fa576102fa610bcf565b6014815260006020820173496e76616c6964206d696e74206164647265737360601b81529150610c5e565b602080825281016102fa81610c88565b601681526000602082017545786365656473206d6178696d756d20737570706c7960501b81529150610c5e565b602080825281016102fa81610cc3565b602581526000602082017f45524332303a2064656372656173656420616c6c6f77616e63652062656c6f77815264207a65726f60d81b602082015291505b5060400190565b602080825281016102fa81610d00565b602681526000602082017f4f776e61626c653a206e6577206f776e657220697320746865207a65726f206181526564647265737360d01b60208201529150610d3e565b602080825281016102fa81610d55565b602481526000602082017f45524332303a20617070726f76652066726f6d20746865207a65726f206164648152637265737360e01b60208201529150610d3e565b602080825281016102fa81610da8565b602281526000602082017f45524332303a20617070726f766520746f20746865207a65726f206164647265815261737360f01b60208201529150610d3e565b602080825281016102fa81610df9565b60208082527f4f776e61626c653a2063616c6c6572206973206e6f7420746865206f776e657291019081526000610c5e565b602080825281016102fa81610e48565b601f81526000602082017f45524332303a206d696e7420746f20746865207a65726f20616464726573730081529150610c5e565b602080825281016102fa81610e8a565b601d81526000602082017f45524332303a20696e73756666696369656e7420616c6c6f77616e636500000081529150610c5e565b602080825281016102fa81610ece565b602581526000602082017f45524332303a207472616e736665722066726f6d20746865207a65726f206164815264647265737360d81b60208201529150610d3e565b602080825281016102fa81610f12565b602381526000602082017f45524332303a207472616e7366657220746f20746865207a65726f206164647281526265737360e81b60208201529150610d3e565b602080825281016102fa81610f64565b602681526000602082017f45524332303a207472616e7366657220616d6f756e7420657863656564732062815265616c616e636560d01b60208201529150610d3e565b602080825281016102fa81610fb456fea26469706673582212204beba4c69e3e1e77623aa465f471e44a832c2eef991d474a4ca501b4483888bf64736f6c63430008170033","opcodes":"PUSH1 0x80 PUSH1 0x40 MSTORE CALLVALUE DUP1 ISZERO PUSH3 0x11 JUMPI PUSH1 0x0 DUP1 REVERT JUMPDEST POP PUSH1 0x40 MLOAD DUP1 PUSH1 0x40 ADD PUSH1 0x40 MSTORE DUP1 PUSH1 0x7 DUP2 MSTORE PUSH1 0x20 ADD PUSH7 0x2737BA2330B4B9 PUSH1 0xC9 SHL DUP2 MSTORE POP PUSH1 0x40 MLOAD DUP1 PUSH1 0x40 ADD PUSH1 0x40 MSTORE DUP1 PUSH1 0x3 DUP2 MSTORE PUSH1 0x20 ADD PUSH3 0x4E4641 PUSH1 0xE8 SHL DUP2 MSTORE POP DUP2 PUSH1 0x3 SWAP1 DUP2 PUSH3 0x5F SWAP2 SWAP1 PUSH3 0x1FB JUMP JUMPDEST POP PUSH1 0x4 PUSH3 0x6E DUP3 DUP3 PUSH3 0x1FB JUMP JUMPDEST POP POP POP PUSH3 0x8B PUSH3 0x85 PUSH3 0x91 PUSH1 0x20 SHL PUSH1 0x20 SHR JUMP JUMPDEST PUSH3 0x95 JUMP JUMPDEST PUSH3 0x2CB JUMP JUMPDEST CALLER SWAP1 JUMP JUMPDEST PUSH1 0x5 DUP1 SLOAD PUSH1 0x1 PUSH1 0x1 PUSH1 0xA0 SHL SUB DUP4 DUP2 AND PUSH1 0x1 PUSH1 0x1 PUSH1 0xA0 SHL SUB NOT DUP4 AND DUP2 OR SWAP1 SWAP4 SSTORE PUSH1 0x40 MLOAD SWAP2 AND SWAP2 SWAP1 DUP3 SWAP1 PUSH32 0x8BE0079C531659141344CD1FD0A4F28419497F9722A3DAAFE3B4186F6B6457E0 SWAP1 PUSH1 0x0 SWAP1 LOG3 POP POP JUMP JUMPDEST PUSH4 0x4E487B71 PUSH1 0xE0 SHL PUSH1 0x0 MSTORE PUSH1 0x41 PUSH1 0x4 MSTORE PUSH1 0x24 PUSH1 0x0 REVERT JUMPDEST PUSH4 0x4E487B71 PUSH1 0xE0 SHL PUSH1 0x0 MSTORE PUSH1 0x22 PUSH1 0x4 MSTORE PUSH1 0x24 PUSH1 0x0 REVERT JUMPDEST PUSH1 0x2 DUP2 DIV PUSH1 0x1 DUP3 AND DUP1 PUSH3 0x128 JUMPI PUSH1 0x7F DUP3 AND SWAP2 POP JUMPDEST PUSH1 0x20 DUP3 LT DUP2 SUB PUSH3 0x13D JUMPI PUSH3 0x13D PUSH3 0xFD JUMP JUMPDEST POP SWAP2 SWAP1 POP JUMP JUMPDEST PUSH1 0x0 PUSH3 0x154 PUSH3 0x151 DUP4 DUP2 JUMP JUMPDEST SWAP1 JUMP JUMPDEST SWAP3 SWAP2 POP POP JUMP JUMPDEST PUSH3 0x165 DUP4 PUSH3 0x143 JUMP JUMPDEST DUP2 SLOAD PUSH1 0x0 NOT PUSH1 0x8 SWAP5 SWAP1 SWAP5 MUL SWAP4 DUP5 SHL NOT AND SWAP3 SHL SWAP2 SWAP1 SWAP2 OR SWAP1 SSTORE POP JUMP JUMPDEST PUSH1 0x0 PUSH3 0x18F DUP2 DUP5 DUP5 PUSH3 0x15A JUMP JUMPDEST POP POP POP JUMP JUMPDEST DUP2 DUP2 LT ISZERO PUSH3 0x1B3 JUMPI PUSH3 0x1AA PUSH1 0x0 DUP3 PUSH3 0x180 JUMP JUMPDEST PUSH1 0x1 ADD PUSH3 0x194 JUMP JUMPDEST POP POP JUMP JUMPDEST PUSH1 0x1F DUP3 GT ISZERO PUSH3 0x18F JUMPI PUSH1 0x0 DUP2 DUP2 MSTORE PUSH1 0x20 SWAP1 KECCAK256 PUSH1 0x20 PUSH1 0x1F DUP6 ADD DIV DUP2 ADD PUSH1 0x20 DUP6 LT ISZERO PUSH3 0x1E0 JUMPI POP DUP1 JUMPDEST PUSH3 0x1F4 PUSH1 0x20 PUSH1 0x1F DUP7 ADD DIV DUP4 ADD DUP3 PUSH3 0x194 JUMP JUMPDEST POP POP POP POP POP JUMP JUMPDEST DUP2 MLOAD PUSH1 0x1 PUSH1 0x1 PUSH1 0x40 SHL SUB DUP2 GT ISZERO PUSH3 0x217 JUMPI PUSH3 0x217 PUSH3 0xE7 JUMP JUMPDEST PUSH3 0x223 DUP3 SLOAD PUSH3 0x113 JUMP JUMPDEST PUSH3 0x230 DUP3 DUP3 DUP6 PUSH3 0x1B7 JUMP JUMPDEST PUSH1 0x20 PUSH1 0x1F DUP4 GT PUSH1 0x1 DUP2 EQ PUSH3 0x267 JUMPI PUSH1 0x0 DUP5 ISZERO PUSH3 0x24E JUMPI POP DUP6 DUP3 ADD MLOAD JUMPDEST PUSH1 0x0 NOT PUSH1 0x8 DUP7 MUL SHR NOT DUP2 AND PUSH1 0x2 DUP7 MUL OR DUP7 SSTORE POP PUSH3 0x2C3 JUMP JUMPDEST PUSH1 0x0 DUP6 DUP2 MSTORE PUSH1 0x20 DUP2 KECCAK256 PUSH1 0x1F NOT DUP7 AND SWAP2 JUMPDEST DUP3 DUP2 LT ISZERO PUSH3 0x299 JUMPI DUP9 DUP6 ADD MLOAD DUP3 SSTORE PUSH1 0x20 SWAP5 DUP6 ADD SWAP5 PUSH1 0x1 SWAP1 SWAP3 ADD SWAP2 ADD PUSH3 0x277 JUMP JUMPDEST DUP7 DUP4 LT ISZERO PUSH3 0x2B6 JUMPI DUP5 DUP10 ADD MLOAD PUSH1 0x0 NOT PUSH1 0x1F DUP10 AND PUSH1 0x8 MUL SHR NOT AND DUP3 SSTORE JUMPDEST PUSH1 0x1 PUSH1 0x2 DUP9 MUL ADD DUP9 SSTORE POP POP POP JUMPDEST POP POP POP POP POP POP JUMP JUMPDEST PUSH2 0x103D DUP1 PUSH3 0x2DB PUSH1 0x0 CODECOPY PUSH1 0x0 RETURN INVALID PUSH1 0x80 PUSH1 0x40 MSTORE CALLVALUE DUP1 ISZERO PUSH2 0x10 JUMPI PUSH1 0x0 DUP1 REVERT JUMPDEST POP PUSH1 0x4 CALLDATASIZE LT PUSH2 0x100 JUMPI PUSH1 0x0 CALLDATALOAD PUSH1 0xE0 SHR DUP1 PUSH4 0x70A08231 GT PUSH2 0x97 JUMPI DUP1 PUSH4 0xA457C2D7 GT PUSH2 0x66 JUMPI DUP1 PUSH4 0xA457C2D7 EQ PUSH2 0x208 JUMPI DUP1 PUSH4 0xA9059CBB EQ PUSH2 0x21B JUMPI DUP1 PUSH4 0xDD62ED3E EQ PUSH2 0x22E JUMPI DUP1 PUSH4 0xF2FDE38B EQ PUSH2 0x241 JUMPI PUSH1 0x0 DUP1 REVERT JUMPDEST DUP1 PUSH4 0x70A08231 EQ PUSH2 0x1BE JUMPI DUP1 PUSH4 0x715018A6 EQ PUSH2 0x1E7 JUMPI DUP1 PUSH4 0x8DA5CB5B EQ PUSH2 0x1EF JUMPI DUP1 PUSH4 0x95D89B41 EQ PUSH2 0x200 JUMPI PUSH1 0x0 DUP1 REVERT JUMPDEST DUP1 PUSH4 0x23B872DD GT PUSH2 0xD3 JUMPI DUP1 PUSH4 0x23B872DD EQ PUSH2 0x174 JUMPI DUP1 PUSH4 0x313CE567 EQ PUSH2 0x187 JUMPI DUP1 PUSH4 0x39509351 EQ PUSH2 0x196 JUMPI DUP1 PUSH4 0x6A627842 EQ PUSH2 0x1A9 JUMPI PUSH1 0x0 DUP1 REVERT JUMPDEST DUP1 PUSH4 0x6FDDE03 EQ PUSH2 0x105 JUMPI DUP1 PUSH4 0x7546172 EQ PUSH2 0x123 JUMPI DUP1 PUSH4 0x95EA7B3 EQ PUSH2 0x143 JUMPI DUP1 PUSH4 0x18160DDD EQ PUSH2 0x163 JUMPI JUMPDEST PUSH1 0x0 DUP1 REVERT JUMPDEST PUSH2 0x10D PUSH2 0x254 JUMP JUMPDEST PUSH1 0x40 MLOAD PUSH2 0x11A SWAP2 SWAP1 PUSH2 0x9FC JUMP JUMPDEST PUSH1 0x40 MLOAD DUP1 SWAP2 SUB SWAP1 RETURN JUMPDEST PUSH1 0x6 SLOAD PUSH2 0x136 SWAP1 PUSH1 0x1 PUSH1 0x1 PUSH1 0xA0 SHL SUB AND DUP2 JUMP JUMPDEST PUSH1 0x40 MLOAD PUSH2 0x11A SWAP2 SWAP1 PUSH2 0xA2D JUMP JUMPDEST PUSH2 0x156 PUSH2 0x151 CALLDATASIZE PUSH1 0x4 PUSH2 0xA6B JUMP JUMPDEST PUSH2 0x2E6 JUMP JUMPDEST PUSH1 0x40 MLOAD PUSH2 0x11A SWAP2 SWAP1 PUSH2 0xAB0 JUMP JUMPDEST PUSH1 0x2 SLOAD JUMPDEST PUSH1 0x40 MLOAD PUSH2 0x11A SWAP2 SWAP1 PUSH2 0xAC4 JUMP JUMPDEST PUSH2 0x156 PUSH2 0x182 CALLDATASIZE PUSH1 0x4 PUSH2 0xAD2 JUMP JUMPDEST PUSH2 0x300 JUMP JUMPDEST PUSH1 0x12 PUSH1 0x40 MLOAD PUSH2 0x11A SWAP2 SWAP1 PUSH2 0xB2B JUMP JUMPDEST PUSH2 0x156 PUSH2 0x1A4 CALLDATASIZE PUSH1 0x4 PUSH2 0xA6B JUMP JUMPDEST PUSH2 0x3F3 JUMP JUMPDEST PUSH2 0x1BC PUSH2 0x1B7 CALLDATASIZE PUSH1 0x4 PUSH2 0xB39 JUMP JUMPDEST PUSH2 0x415 JUMP JUMPDEST STOP JUMPDEST PUSH2 0x167 PUSH2 0x1CC CALLDATASIZE PUSH1 0x4 PUSH2 0xB39 JUMP JUMPDEST PUSH1 0x1 PUSH1 0x1 PUSH1 0xA0 SHL SUB AND PUSH1 0x0 SWAP1 DUP2 MSTORE PUSH1 0x20 DUP2 SWAP1 MSTORE PUSH1 0x40 SWAP1 KECCAK256 SLOAD SWAP1 JUMP JUMPDEST PUSH2 0x1BC PUSH2 0x4C3 JUMP JUMPDEST PUSH1 0x5 SLOAD PUSH1 0x1 PUSH1 0x1 PUSH1 0xA0 SHL SUB AND PUSH2 0x136 JUMP JUMPDEST PUSH2 0x10D PUSH2 0x4D7 JUMP JUMPDEST PUSH2 0x156 PUSH2 0x216 CALLDATASIZE PUSH1 0x4 PUSH2 0xA6B JUMP JUMPDEST PUSH2 0x4E6 JUMP JUMPDEST PUSH2 0x156 PUSH2 0x229 CALLDATASIZE PUSH1 0x4 PUSH2 0xA6B JUMP JUMPDEST PUSH2 0x52E JUMP JUMPDEST PUSH2 0x167 PUSH2 0x23C CALLDATASIZE PUSH1 0x4 PUSH2 0xB5A JUMP JUMPDEST PUSH2 0x611 JUMP JUMPDEST PUSH2 0x1BC PUSH2 0x24F CALLDATASIZE PUSH1 0x4 PUSH2 0xB39 JUMP JUMPDEST PUSH2 0x63C JUMP JUMPDEST PUSH1 0x60 PUSH1 0x3 DUP1 SLOAD PUSH2 0x263 SWAP1 PUSH2 0xBA3 JUMP JUMPDEST DUP1 PUSH1 0x1F ADD PUSH1 0x20 DUP1 SWAP2 DIV MUL PUSH1 0x20 ADD PUSH1 0x40 MLOAD SWAP1 DUP2 ADD PUSH1 0x40 MSTORE DUP1 SWAP3 SWAP2 SWAP1 DUP2 DUP2 MSTORE PUSH1 0x20 ADD DUP3 DUP1 SLOAD PUSH2 0x28F SWAP1 PUSH2 0xBA3 JUMP JUMPDEST DUP1 ISZERO PUSH2 0x2DC JUMPI DUP1 PUSH1 0x1F LT PUSH2 0x2B1 JUMPI PUSH2 0x100 DUP1 DUP4 SLOAD DIV MUL DUP4 MSTORE SWAP2 PUSH1 0x20 ADD SWAP2 PUSH2 0x2DC JUMP JUMPDEST DUP3 ADD SWAP2 SWAP1 PUSH1 0x0 MSTORE PUSH1 0x20 PUSH1 0x0 KECCAK256 SWAP1 JUMPDEST DUP2 SLOAD DUP2 MSTORE SWAP1 PUSH1 0x1 ADD SWAP1 PUSH1 0x20 ADD DUP1 DUP4 GT PUSH2 0x2BF JUMPI DUP3 SWAP1 SUB PUSH1 0x1F AND DUP3 ADD SWAP2 JUMPDEST POP POP POP POP POP SWAP1 POP SWAP1 JUMP JUMPDEST PUSH1 0x0 CALLER PUSH2 0x2F4 DUP2 DUP6 DUP6 PUSH2 0x673 JUMP JUMPDEST PUSH1 0x1 SWAP2 POP POP JUMPDEST SWAP3 SWAP2 POP POP JUMP JUMPDEST PUSH1 0x0 PUSH2 0x316 PUSH1 0x5 SLOAD PUSH1 0x1 PUSH1 0x1 PUSH1 0xA0 SHL SUB AND CALLER EQ SWAP1 JUMP JUMPDEST ISZERO DUP1 ISZERO PUSH2 0x334 JUMPI POP PUSH2 0x332 PUSH1 0x6 SLOAD PUSH1 0x1 PUSH1 0x1 PUSH1 0xA0 SHL SUB AND CALLER EQ SWAP1 JUMP JUMPDEST ISZERO JUMPDEST DUP1 ISZERO PUSH2 0x34E JUMPI POP PUSH1 0x5 SLOAD PUSH1 0x1 PUSH1 0x1 PUSH1 0xA0 SHL SUB DUP5 DUP2 AND SWAP2 AND EQ ISZERO JUMPDEST DUP1 ISZERO PUSH2 0x368 JUMPI POP PUSH1 0x6 SLOAD PUSH1 0x1 PUSH1 0x1 PUSH1 0xA0 SHL SUB DUP5 DUP2 AND SWAP2 AND EQ ISZERO JUMPDEST ISZERO PUSH2 0x3E0 JUMPI PUSH1 0x64 PUSH2 0x387 PUSH1 0x1 PUSH13 0x64F964E68233A76F520000000 PUSH2 0xBE5 JUMP JUMPDEST PUSH2 0x391 SWAP2 SWAP1 PUSH2 0xC1A JUMP JUMPDEST PUSH2 0x3B9 DUP4 PUSH2 0x3B4 DUP7 PUSH1 0x1 PUSH1 0x1 PUSH1 0xA0 SHL SUB AND PUSH1 0x0 SWAP1 DUP2 MSTORE PUSH1 0x20 DUP2 SWAP1 MSTORE PUSH1 0x40 SWAP1 KECCAK256 SLOAD SWAP1 JUMP JUMPDEST PUSH2 0x727 JUMP JUMPDEST GT ISZERO PUSH2 0x3E0 JUMPI PUSH1 0x40 MLOAD PUSH3 0x461BCD PUSH1 0xE5 SHL DUP2 MSTORE PUSH1 0x4 ADD PUSH2 0x3D7 SWAP1 PUSH2 0xC65 JUMP JUMPDEST PUSH1 0x40 MLOAD DUP1 SWAP2 SUB SWAP1 REVERT JUMPDEST PUSH2 0x3EB DUP5 DUP5 DUP5 PUSH2 0x733 JUMP JUMPDEST SWAP5 SWAP4 POP POP POP POP JUMP JUMPDEST PUSH1 0x0 CALLER PUSH2 0x2F4 DUP2 DUP6 DUP6 PUSH2 0x406 DUP4 DUP4 PUSH2 0x611 JUMP JUMPDEST PUSH2 0x410 SWAP2 SWAP1 PUSH2 0xC75 JUMP JUMPDEST PUSH2 0x673 JUMP JUMPDEST PUSH2 0x41D PUSH2 0x74C JUMP JUMPDEST PUSH1 0x1 PUSH1 0x1 PUSH1 0xA0 SHL SUB DUP2 AND PUSH2 0x443 JUMPI PUSH1 0x40 MLOAD PUSH3 0x461BCD PUSH1 0xE5 SHL DUP2 MSTORE PUSH1 0x4 ADD PUSH2 0x3D7 SWAP1 PUSH2 0xCB3 JUMP JUMPDEST PUSH13 0x64F964E68233A76F520000000 PUSH2 0x470 PUSH2 0x45D PUSH1 0x2 SLOAD SWAP1 JUMP JUMPDEST PUSH13 0x64F964E68233A76F520000000 PUSH2 0x727 JUMP JUMPDEST GT ISZERO PUSH2 0x48E JUMPI PUSH1 0x40 MLOAD PUSH3 0x461BCD PUSH1 0xE5 SHL DUP2 MSTORE PUSH1 0x4 ADD PUSH2 0x3D7 SWAP1 PUSH2 0xCF0 JUMP JUMPDEST PUSH1 0x6 DUP1 SLOAD PUSH1 0x1 PUSH1 0x1 PUSH1 0xA0 SHL SUB NOT AND PUSH1 0x1 PUSH1 0x1 PUSH1 0xA0 SHL SUB DUP4 AND OR SWAP1 SSTORE PUSH2 0x4C0 DUP2 PUSH13 0x64F964E68233A76F520000000 PUSH2 0x776 JUMP JUMPDEST POP JUMP JUMPDEST PUSH2 0x4CB PUSH2 0x74C JUMP JUMPDEST PUSH2 0x4D5 PUSH1 0x0 PUSH2 0x80C JUMP JUMPDEST JUMP JUMPDEST PUSH1 0x60 PUSH1 0x4 DUP1 SLOAD PUSH2 0x263 SWAP1 PUSH2 0xBA3 JUMP JUMPDEST PUSH1 0x0 CALLER DUP2 PUSH2 0x4F4 DUP3 DUP7 PUSH2 0x611 JUMP JUMPDEST SWAP1 POP DUP4 DUP2 LT ISZERO PUSH2 0x516 JUMPI PUSH1 0x40 MLOAD PUSH3 0x461BCD PUSH1 0xE5 SHL DUP2 MSTORE PUSH1 0x4 ADD PUSH2 0x3D7 SWAP1 PUSH2 0xD45 JUMP JUMPDEST PUSH2 0x523 DUP3 DUP7 DUP7 DUP5 SUB PUSH2 0x673 JUMP JUMPDEST POP PUSH1 0x1 SWAP5 SWAP4 POP POP POP POP JUMP JUMPDEST PUSH1 0x0 PUSH2 0x544 PUSH1 0x5 SLOAD PUSH1 0x1 PUSH1 0x1 PUSH1 0xA0 SHL SUB AND CALLER EQ SWAP1 JUMP JUMPDEST ISZERO DUP1 ISZERO PUSH2 0x562 JUMPI POP PUSH2 0x560 PUSH1 0x6 SLOAD PUSH1 0x1 PUSH1 0x1 PUSH1 0xA0 SHL SUB AND CALLER EQ SWAP1 JUMP JUMPDEST ISZERO JUMPDEST DUP1 ISZERO PUSH2 0x57C JUMPI POP PUSH1 0x5 SLOAD PUSH1 0x1 PUSH1 0x1 PUSH1 0xA0 SHL SUB DUP5 DUP2 AND SWAP2 AND EQ ISZERO JUMPDEST DUP1 ISZERO PUSH2 0x596 JUMPI POP PUSH1 0x6 SLOAD PUSH1 0x1 PUSH1 0x1 PUSH1 0xA0 SHL SUB DUP5 DUP2 AND SWAP2 AND EQ ISZERO JUMPDEST ISZERO PUSH2 0x600 JUMPI PUSH1 0x64 PUSH2 0x5B5 PUSH1 0x1 PUSH13 0x64F964E68233A76F520000000 PUSH2 0xBE5 JUMP JUMPDEST PUSH2 0x5BF SWAP2 SWAP1 PUSH2 0xC1A JUMP JUMPDEST PUSH2 0x5E2 DUP4 PUSH2 0x3B4 DUP7 PUSH1 0x1 PUSH1 0x1 PUSH1 0xA0 SHL SUB AND PUSH1 0x0 SWAP1 DUP2 MSTORE PUSH1 0x20 DUP2 SWAP1 MSTORE PUSH1 0x40 SWAP1 KECCAK256 SLOAD SWAP1 JUMP JUMPDEST GT ISZERO PUSH2 0x600 JUMPI PUSH1 0x40 MLOAD PUSH3 0x461BCD PUSH1 0xE5 SHL DUP2 MSTORE PUSH1 0x4 ADD PUSH2 0x3D7 SWAP1 PUSH2 0xC65 JUMP JUMPDEST PUSH2 0x60A DUP4 DUP4 PUSH2 0x85E JUMP JUMPDEST SWAP4 SWAP3 POP POP POP JUMP JUMPDEST PUSH1 0x1 PUSH1 0x1 PUSH1 0xA0 SHL SUB SWAP2 DUP3 AND PUSH1 0x0 SWAP1 DUP2 MSTORE PUSH1 0x1 PUSH1 0x20 SWAP1 DUP2 MSTORE PUSH1 0x40 DUP1 DUP4 KECCAK256 SWAP4 SWAP1 SWAP5 AND DUP3 MSTORE SWAP2 SWAP1 SWAP2 MSTORE KECCAK256 SLOAD SWAP1 JUMP JUMPDEST PUSH2 0x644 PUSH2 0x74C JUMP JUMPDEST PUSH1 0x1 PUSH1 0x1 PUSH1 0xA0 SHL SUB DUP2 AND PUSH2 0x66A JUMPI PUSH1 0x40 MLOAD PUSH3 0x461BCD PUSH1 0xE5 SHL DUP2 MSTORE PUSH1 0x4 ADD PUSH2 0x3D7 SWAP1 PUSH2 0xD98 JUMP JUMPDEST PUSH2 0x4C0 DUP2 PUSH2 0x80C JUMP JUMPDEST PUSH1 0x1 PUSH1 0x1 PUSH1 0xA0 SHL SUB DUP4 AND PUSH2 0x699 JUMPI PUSH1 0x40 MLOAD PUSH3 0x461BCD PUSH1 0xE5 SHL DUP2 MSTORE PUSH1 0x4 ADD PUSH2 0x3D7 SWAP1 PUSH2 0xDE9 JUMP JUMPDEST PUSH1 0x1 PUSH1 0x1 PUSH1 0xA0 SHL SUB DUP3 AND PUSH2 0x6BF JUMPI PUSH1 0x40 MLOAD PUSH3 0x461BCD PUSH1 0xE5 SHL DUP2 MSTORE PUSH1 0x4 ADD PUSH2 0x3D7 SWAP1 PUSH2 0xE38 JUMP JUMPDEST PUSH1 0x1 PUSH1 0x1 PUSH1 0xA0 SHL SUB DUP1 DUP5 AND PUSH1 0x0 DUP2 DUP2 MSTORE PUSH1 0x1 PUSH1 0x20 SWAP1 DUP2 MSTORE PUSH1 0x40 DUP1 DUP4 KECCAK256 SWAP5 DUP8 AND DUP1 DUP5 MSTORE SWAP5 SWAP1 SWAP2 MSTORE SWAP1 DUP2 SWAP1 KECCAK256 DUP5 SWAP1 SSTORE MLOAD PUSH32 0x8C5BE1E5EBEC7D5BD14F71427D1E84F3DD0314C0F7B2291E5B200AC8C7C3B925 SWAP1 PUSH2 0x71A SWAP1 DUP6 SWAP1 PUSH2 0xAC4 JUMP JUMPDEST PUSH1 0x40 MLOAD DUP1 SWAP2 SUB SWAP1 LOG3 POP POP POP JUMP JUMPDEST PUSH1 0x0 PUSH2 0x60A DUP3 DUP5 PUSH2 0xC75 JUMP JUMPDEST PUSH1 0x0 CALLER PUSH2 0x741 DUP6 DUP3 DUP6 PUSH2 0x86C JUMP JUMPDEST PUSH2 0x523 DUP6 DUP6 DUP6 PUSH2 0x8B6 JUMP JUMPDEST PUSH1 0x5 SLOAD PUSH1 0x1 PUSH1 0x1 PUSH1 0xA0 SHL SUB AND CALLER EQ PUSH2 0x4D5 JUMPI PUSH1 0x40 MLOAD PUSH3 0x461BCD PUSH1 0xE5 SHL DUP2 MSTORE PUSH1 0x4 ADD PUSH2 0x3D7 SWAP1 PUSH2 0xE7A JUMP JUMPDEST PUSH1 0x1 PUSH1 0x1 PUSH1 0xA0 SHL SUB DUP3 AND PUSH2 0x79C JUMPI PUSH1 0x40 MLOAD PUSH3 0x461BCD PUSH1 0xE5 SHL DUP2 MSTORE PUSH1 0x4 ADD PUSH2 0x3D7 SWAP1 PUSH2 0xEBE JUMP JUMPDEST DUP1 PUSH1 0x2 PUSH1 0x0 DUP3 DUP3 SLOAD PUSH2 0x7AE SWAP2 SWAP1 PUSH2 0xC75 JUMP JUMPDEST SWAP1 SWAP2 SSTORE POP POP PUSH1 0x1 PUSH1 0x1 PUSH1 0xA0 SHL SUB DUP3 AND PUSH1 0x0 DUP2 DUP2 MSTORE PUSH1 0x20 DUP2 SWAP1 MSTORE PUSH1 0x40 DUP1 DUP3 KECCAK256 DUP1 SLOAD DUP6 ADD SWAP1 SSTORE MLOAD PUSH32 0xDDF252AD1BE2C89B69C2B068FC378DAA952BA7F163C4A11628F55A4DF523B3EF SWAP1 PUSH2 0x800 SWAP1 DUP6 SWAP1 PUSH2 0xAC4 JUMP JUMPDEST PUSH1 0x40 MLOAD DUP1 SWAP2 SUB SWAP1 LOG3 POP POP JUMP JUMPDEST PUSH1 0x5 DUP1 SLOAD PUSH1 0x1 PUSH1 0x1 PUSH1 0xA0 SHL SUB DUP4 DUP2 AND PUSH1 0x1 PUSH1 0x1 PUSH1 0xA0 SHL SUB NOT DUP4 AND DUP2 OR SWAP1 SWAP4 SSTORE PUSH1 0x40 MLOAD SWAP2 AND SWAP2 SWAP1 DUP3 SWAP1 PUSH32 0x8BE0079C531659141344CD1FD0A4F28419497F9722A3DAAFE3B4186F6B6457E0 SWAP1 PUSH1 0x0 SWAP1 LOG3 POP POP JUMP JUMPDEST PUSH1 0x0 CALLER PUSH2 0x2F4 DUP2 DUP6 DUP6 PUSH2 0x8B6 JUMP JUMPDEST PUSH1 0x0 PUSH2 0x878 DUP5 DUP5 PUSH2 0x611 JUMP JUMPDEST SWAP1 POP PUSH1 0x0 NOT DUP2 EQ PUSH2 0x8B0 JUMPI DUP2 DUP2 LT ISZERO PUSH2 0x8A3 JUMPI PUSH1 0x40 MLOAD PUSH3 0x461BCD PUSH1 0xE5 SHL DUP2 MSTORE PUSH1 0x4 ADD PUSH2 0x3D7 SWAP1 PUSH2 0xF02 JUMP JUMPDEST PUSH2 0x8B0 DUP5 DUP5 DUP5 DUP5 SUB PUSH2 0x673 JUMP JUMPDEST POP POP POP POP JUMP JUMPDEST PUSH1 0x1 PUSH1 0x1 PUSH1 0xA0 SHL SUB DUP4 AND PUSH2 0x8DC JUMPI PUSH1 0x40 MLOAD PUSH3 0x461BCD PUSH1 0xE5 SHL DUP2 MSTORE PUSH1 0x4 ADD PUSH2 0x3D7 SWAP1 PUSH2 0xF54 JUMP JUMPDEST PUSH1 0x1 PUSH1 0x1 PUSH1 0xA0 SHL SUB DUP3 AND PUSH2 0x902 JUMPI PUSH1 0x40 MLOAD PUSH3 0x461BCD PUSH1 0xE5 SHL DUP2 MSTORE PUSH1 0x4 ADD PUSH2 0x3D7 SWAP1 PUSH2 0xFA4 JUMP JUMPDEST PUSH1 0x1 PUSH1 0x1 PUSH1 0xA0 SHL SUB DUP4 AND PUSH1 0x0 SWAP1 DUP2 MSTORE PUSH1 0x20 DUP2 SWAP1 MSTORE PUSH1 0x40 SWAP1 KECCAK256 SLOAD DUP2 DUP2 LT ISZERO PUSH2 0x93B JUMPI PUSH1 0x40 MLOAD PUSH3 0x461BCD PUSH1 0xE5 SHL DUP2 MSTORE PUSH1 0x4 ADD PUSH2 0x3D7 SWAP1 PUSH2 0xFF7 JUMP JUMPDEST PUSH1 0x1 PUSH1 0x1 PUSH1 0xA0 SHL SUB DUP1 DUP6 AND PUSH1 0x0 DUP2 DUP2 MSTORE PUSH1 0x20 DUP2 SWAP1 MSTORE PUSH1 0x40 DUP1 DUP3 KECCAK256 DUP7 DUP7 SUB SWAP1 SSTORE SWAP3 DUP7 AND DUP1 DUP3 MSTORE SWAP1 DUP4 SWAP1 KECCAK256 DUP1 SLOAD DUP7 ADD SWAP1 SSTORE SWAP2 MLOAD PUSH32 0xDDF252AD1BE2C89B69C2B068FC378DAA952BA7F163C4A11628F55A4DF523B3EF SWAP1 PUSH2 0x999 SWAP1 DUP7 SWAP1 PUSH2 0xAC4 JUMP JUMPDEST PUSH1 0x40 MLOAD DUP1 SWAP2 SUB SWAP1 LOG3 PUSH2 0x8B0 JUMP JUMPDEST PUSH1 0x0 JUMPDEST DUP4 DUP2 LT ISZERO PUSH2 0x9C1 JUMPI DUP2 DUP2 ADD MLOAD DUP4 DUP3 ADD MSTORE PUSH1 0x20 ADD PUSH2 0x9A9 JUMP JUMPDEST POP POP PUSH1 0x0 SWAP2 ADD MSTORE JUMP JUMPDEST PUSH1 0x0 PUSH2 0x9D4 DUP3 MLOAD SWAP1 JUMP JUMPDEST DUP1 DUP5 MSTORE PUSH1 0x20 DUP5 ADD SWAP4 POP PUSH2 0x9EB DUP2 DUP6 PUSH1 0x20 DUP7 ADD PUSH2 0x9A6 JUMP JUMPDEST PUSH1 0x1F ADD PUSH1 0x1F NOT AND SWAP3 SWAP1 SWAP3 ADD SWAP3 SWAP2 POP POP JUMP JUMPDEST PUSH1 0x20 DUP1 DUP3 MSTORE DUP2 ADD PUSH2 0x60A DUP2 DUP5 PUSH2 0x9CA JUMP JUMPDEST PUSH1 0x0 PUSH1 0x1 PUSH1 0x1 PUSH1 0xA0 SHL SUB DUP3 AND PUSH2 0x2FA JUMP JUMPDEST PUSH2 0xA27 DUP2 PUSH2 0xA0D JUMP JUMPDEST DUP3 MSTORE POP POP JUMP JUMPDEST PUSH1 0x20 DUP2 ADD PUSH2 0x2FA DUP3 DUP5 PUSH2 0xA1E JUMP JUMPDEST PUSH2 0xA44 DUP2 PUSH2 0xA0D JUMP JUMPDEST DUP2 EQ PUSH2 0x4C0 JUMPI PUSH1 0x0 DUP1 REVERT JUMPDEST DUP1 CALLDATALOAD PUSH2 0x2FA DUP2 PUSH2 0xA3B JUMP JUMPDEST DUP1 PUSH2 0xA44 JUMP JUMPDEST DUP1 CALLDATALOAD PUSH2 0x2FA DUP2 PUSH2 0xA5A JUMP JUMPDEST PUSH1 0x0 DUP1 PUSH1 0x40 DUP4 DUP6 SUB SLT ISZERO PUSH2 0xA81 JUMPI PUSH2 0xA81 PUSH1 0x0 DUP1 REVERT JUMPDEST PUSH1 0x0 PUSH2 0xA8D DUP6 DUP6 PUSH2 0xA4F JUMP JUMPDEST SWAP3 POP POP PUSH1 0x20 PUSH2 0xA9E DUP6 DUP3 DUP7 ADD PUSH2 0xA60 JUMP JUMPDEST SWAP2 POP POP SWAP3 POP SWAP3 SWAP1 POP JUMP JUMPDEST DUP1 ISZERO ISZERO PUSH2 0xA27 JUMP JUMPDEST PUSH1 0x20 DUP2 ADD PUSH2 0x2FA DUP3 DUP5 PUSH2 0xAA8 JUMP JUMPDEST DUP1 PUSH2 0xA27 JUMP JUMPDEST PUSH1 0x20 DUP2 ADD PUSH2 0x2FA DUP3 DUP5 PUSH2 0xABE JUMP JUMPDEST PUSH1 0x0 DUP1 PUSH1 0x0 PUSH1 0x60 DUP5 DUP7 SUB SLT ISZERO PUSH2 0xAEA JUMPI PUSH2 0xAEA PUSH1 0x0 DUP1 REVERT JUMPDEST PUSH1 0x0 PUSH2 0xAF6 DUP7 DUP7 PUSH2 0xA4F JUMP JUMPDEST SWAP4 POP POP PUSH1 0x20 PUSH2 0xB07 DUP7 DUP3 DUP8 ADD PUSH2 0xA4F JUMP JUMPDEST SWAP3 POP POP PUSH1 0x40 PUSH2 0xB18 DUP7 DUP3 DUP8 ADD PUSH2 0xA60 JUMP JUMPDEST SWAP2 POP POP SWAP3 POP SWAP3 POP SWAP3 JUMP JUMPDEST PUSH1 0xFF DUP2 AND PUSH2 0xA27 JUMP JUMPDEST PUSH1 0x20 DUP2 ADD PUSH2 0x2FA DUP3 DUP5 PUSH2 0xB22 JUMP JUMPDEST PUSH1 0x0 PUSH1 0x20 DUP3 DUP5 SUB SLT ISZERO PUSH2 0xB4E JUMPI PUSH2 0xB4E PUSH1 0x0 DUP1 REVERT JUMPDEST PUSH1 0x0 PUSH2 0x3EB DUP5 DUP5 PUSH2 0xA4F JUMP JUMPDEST PUSH1 0x0 DUP1 PUSH1 0x40 DUP4 DUP6 SUB SLT ISZERO PUSH2 0xB70 JUMPI PUSH2 0xB70 PUSH1 0x0 DUP1 REVERT JUMPDEST PUSH1 0x0 PUSH2 0xB7C DUP6 DUP6 PUSH2 0xA4F JUMP JUMPDEST SWAP3 POP POP PUSH1 0x20 PUSH2 0xA9E DUP6 DUP3 DUP7 ADD PUSH2 0xA4F JUMP JUMPDEST PUSH4 0x4E487B71 PUSH1 0xE0 SHL PUSH1 0x0 MSTORE PUSH1 0x22 PUSH1 0x4 MSTORE PUSH1 0x24 PUSH1 0x0 REVERT JUMPDEST PUSH1 0x2 DUP2 DIV PUSH1 0x1 DUP3 AND DUP1 PUSH2 0xBB7 JUMPI PUSH1 0x7F DUP3 AND SWAP2 POP JUMPDEST PUSH1 0x20 DUP3 LT DUP2 SUB PUSH2 0xBC9 JUMPI PUSH2 0xBC9 PUSH2 0xB8D JUMP JUMPDEST POP SWAP2 SWAP1 POP JUMP JUMPDEST PUSH4 0x4E487B71 PUSH1 0xE0 SHL PUSH1 0x0 MSTORE PUSH1 0x11 PUSH1 0x4 MSTORE PUSH1 0x24 PUSH1 0x0 REVERT JUMPDEST DUP2 DUP2 MUL DUP1 DUP3 ISZERO DUP4 DUP3 DIV DUP6 EQ OR PUSH2 0xBFD JUMPI PUSH2 0xBFD PUSH2 0xBCF JUMP JUMPDEST POP SWAP3 SWAP2 POP POP JUMP JUMPDEST PUSH4 0x4E487B71 PUSH1 0xE0 SHL PUSH1 0x0 MSTORE PUSH1 0x12 PUSH1 0x4 MSTORE PUSH1 0x24 PUSH1 0x0 REVERT JUMPDEST PUSH1 0x0 DUP3 PUSH2 0xC29 JUMPI PUSH2 0xC29 PUSH2 0xC04 JUMP JUMPDEST POP DIV SWAP1 JUMP JUMPDEST PUSH1 0x1E DUP2 MSTORE PUSH1 0x0 PUSH1 0x20 DUP3 ADD PUSH32 0x45786365656473206D6178696D756D206275792070657263656E746167650000 DUP2 MSTORE SWAP2 POP JUMPDEST POP PUSH1 0x20 ADD SWAP1 JUMP JUMPDEST PUSH1 0x20 DUP1 DUP3 MSTORE DUP2 ADD PUSH2 0x2FA DUP2 PUSH2 0xC2E JUMP JUMPDEST DUP1 DUP3 ADD DUP1 DUP3 GT ISZERO PUSH2 0x2FA JUMPI PUSH2 0x2FA PUSH2 0xBCF JUMP JUMPDEST PUSH1 0x14 DUP2 MSTORE PUSH1 0x0 PUSH1 0x20 DUP3 ADD PUSH20 0x496E76616C6964206D696E742061646472657373 PUSH1 0x60 SHL DUP2 MSTORE SWAP2 POP PUSH2 0xC5E JUMP JUMPDEST PUSH1 0x20 DUP1 DUP3 MSTORE DUP2 ADD PUSH2 0x2FA DUP2 PUSH2 0xC88 JUMP JUMPDEST PUSH1 0x16 DUP2 MSTORE PUSH1 0x0 PUSH1 0x20 DUP3 ADD PUSH22 0x45786365656473206D6178696D756D20737570706C79 PUSH1 0x50 SHL DUP2 MSTORE SWAP2 POP PUSH2 0xC5E JUMP JUMPDEST PUSH1 0x20 DUP1 DUP3 MSTORE DUP2 ADD PUSH2 0x2FA DUP2 PUSH2 0xCC3 JUMP JUMPDEST PUSH1 0x25 DUP2 MSTORE PUSH1 0x0 PUSH1 0x20 DUP3 ADD PUSH32 0x45524332303A2064656372656173656420616C6C6F77616E63652062656C6F77 DUP2 MSTORE PUSH5 0x207A65726F PUSH1 0xD8 SHL PUSH1 0x20 DUP3 ADD MSTORE SWAP2 POP JUMPDEST POP PUSH1 0x40 ADD SWAP1 JUMP JUMPDEST PUSH1 0x20 DUP1 DUP3 MSTORE DUP2 ADD PUSH2 0x2FA DUP2 PUSH2 0xD00 JUMP JUMPDEST PUSH1 0x26 DUP2 MSTORE PUSH1 0x0 PUSH1 0x20 DUP3 ADD PUSH32 0x4F776E61626C653A206E6577206F776E657220697320746865207A65726F2061 DUP2 MSTORE PUSH6 0x646472657373 PUSH1 0xD0 SHL PUSH1 0x20 DUP3 ADD MSTORE SWAP2 POP PUSH2 0xD3E JUMP JUMPDEST PUSH1 0x20 DUP1 DUP3 MSTORE DUP2 ADD PUSH2 0x2FA DUP2 PUSH2 0xD55 JUMP JUMPDEST PUSH1 0x24 DUP2 MSTORE PUSH1 0x0 PUSH1 0x20 DUP3 ADD PUSH32 0x45524332303A20617070726F76652066726F6D20746865207A65726F20616464 DUP2 MSTORE PUSH4 0x72657373 PUSH1 0xE0 SHL PUSH1 0x20 DUP3 ADD MSTORE SWAP2 POP PUSH2 0xD3E JUMP JUMPDEST PUSH1 0x20 DUP1 DUP3 MSTORE DUP2 ADD PUSH2 0x2FA DUP2 PUSH2 0xDA8 JUMP JUMPDEST PUSH1 0x22 DUP2 MSTORE PUSH1 0x0 PUSH1 0x20 DUP3 ADD PUSH32 0x45524332303A20617070726F766520746F20746865207A65726F206164647265 DUP2 MSTORE PUSH2 0x7373 PUSH1 0xF0 SHL PUSH1 0x20 DUP3 ADD MSTORE SWAP2 POP PUSH2 0xD3E JUMP JUMPDEST PUSH1 0x20 DUP1 DUP3 MSTORE DUP2 ADD PUSH2 0x2FA DUP2 PUSH2 0xDF9 JUMP JUMPDEST PUSH1 0x20 DUP1 DUP3 MSTORE PUSH32 0x4F776E61626C653A2063616C6C6572206973206E6F7420746865206F776E6572 SWAP2 ADD SWAP1 DUP2 MSTORE PUSH1 0x0 PUSH2 0xC5E JUMP JUMPDEST PUSH1 0x20 DUP1 DUP3 MSTORE DUP2 ADD PUSH2 0x2FA DUP2 PUSH2 0xE48 JUMP JUMPDEST PUSH1 0x1F DUP2 MSTORE PUSH1 0x0 PUSH1 0x20 DUP3 ADD PUSH32 0x45524332303A206D696E7420746F20746865207A65726F206164647265737300 DUP2 MSTORE SWAP2 POP PUSH2 0xC5E JUMP JUMPDEST PUSH1 0x20 DUP1 DUP3 MSTORE DUP2 ADD PUSH2 0x2FA DUP2 PUSH2 0xE8A JUMP JUMPDEST PUSH1 0x1D DUP2 MSTORE PUSH1 0x0 PUSH1 0x20 DUP3 ADD PUSH32 0x45524332303A20696E73756666696369656E7420616C6C6F77616E6365000000 DUP2 MSTORE SWAP2 POP PUSH2 0xC5E JUMP JUMPDEST PUSH1 0x20 DUP1 DUP3 MSTORE DUP2 ADD PUSH2 0x2FA DUP2 PUSH2 0xECE JUMP JUMPDEST PUSH1 0x25 DUP2 MSTORE PUSH1 0x0 PUSH1 0x20 DUP3 ADD PUSH32 0x45524332303A207472616E736665722066726F6D20746865207A65726F206164 DUP2 MSTORE PUSH5 0x6472657373 PUSH1 0xD8 SHL PUSH1 0x20 DUP3 ADD MSTORE SWAP2 POP PUSH2 0xD3E JUMP JUMPDEST PUSH1 0x20 DUP1 DUP3 MSTORE DUP2 ADD PUSH2 0x2FA DUP2 PUSH2 0xF12 JUMP JUMPDEST PUSH1 0x23 DUP2 MSTORE PUSH1 0x0 PUSH1 0x20 DUP3 ADD PUSH32 0x45524332303A207472616E7366657220746F20746865207A65726F2061646472 DUP2 MSTORE PUSH3 0x657373 PUSH1 0xE8 SHL PUSH1 0x20 DUP3 ADD MSTORE SWAP2 POP PUSH2 0xD3E JUMP JUMPDEST PUSH1 0x20 DUP1 DUP3 MSTORE DUP2 ADD PUSH2 0x2FA DUP2 PUSH2 0xF64 JUMP JUMPDEST PUSH1 0x26 DUP2 MSTORE PUSH1 0x0 PUSH1 0x20 DUP3 ADD PUSH32 0x45524332303A207472616E7366657220616D6F756E7420657863656564732062 DUP2 MSTORE PUSH6 0x616C616E6365 PUSH1 0xD0 SHL PUSH1 0x20 DUP3 ADD MSTORE SWAP2 POP PUSH2 0xD3E JUMP JUMPDEST PUSH1 0x20 DUP1 DUP3 MSTORE DUP2 ADD PUSH2 0x2FA DUP2 PUSH2 0xFB4 JUMP INVALID LOG2 PUSH5 0x6970667358 0x22 SLT KECCAK256 0x4B 0xEB LOG4 0xC6 SWAP15 RETURNDATACOPY 0x1E PUSH24 0x623AA465F471E44A832C2EEF991D474A4CA501B4483888BF PUSH5 0x736F6C6343 STOP ADDMOD OR STOP CALLER "},"methodIdentifiers":{"allowance(address,address)":"dd62ed3e","approve(address,uint256)":"095ea7b3","balanceOf(address)":"70a08231","decimals()":"313ce567","decreaseAllowance(address,uint256)":"a457c2d7","increaseAllowance(address,uint256)":"39509351","mint(address)":"6a627842","minter()":"07546172","name()":"06fdde03","owner()":"8da5cb5b","renounceOwnership()":"715018a6","symbol()":"95d89b41","totalSupply()":"18160ddd","transfer(address,uint256)":"a9059cbb","transferFrom(address,address,uint256)":"23b872dd","transferOwnership(address)":"f2fde38b"}}}}}